:1000000001308A00A62900000A108A100A1182070E
:1000100028340C34013406343219C521D218B31BEC
:1000200000002630840083130008031925280130BE
:10003000F800F701F70B1A28F80B19284A30F700D7
:10004000F70B20282328800B172808002D182A28B2
:1000500008122B280816831608128312AD183228AE
:100060008812332888168316881283122D193A288D
:1000700008133B280817831608138312AD1942286A
:1000800088134328881783168813000083120815E5
:10009000831608114B288312081183160811831246
:1000A0000800AE018316081600308312081A0130CA
:1000B000AE048316881600308312881A0130F700C8
:1000C0000310F70D7708AE0483160817003083126B
:1000D000081B0130F700F70DF70DFC30F705770826
:1000E000AE048316881700308312881B0130F70096
:1000F000F70DF70DF70DF830F7057708AE042E0869
:10010000F8000800831608110810881083120810E0
:100110008316081008168816081788178312881483
:10012000831688100000831208158316081100003A
:10013000831251207808AD000811831608110000C1
:1001400083120815831608110000831251207808C5
:10015000AC000811831608110812881208138813BE
:1001600083122D0EF700F030F70577082C04F80005
:100170007808AC00AC1FBE2883168A28AA08031D85
:10018000C3280810C428081483160810000083121E
:100190008810831688100000831208118316081136
:1001A00083122B0EAC000F30AC052C08AD002620BE
:1001B0002B080F39AC00AD0026200800831608126A
:1001C0008812081388130811081088108312081069
:1001D0008316081083128810831688108312081162
:1001E000831608110F308312A60011200130A100E0
:1001F0002108033C031C04290330AD0026200530F0
:10020000A6001120A10AF8280230AD0026200530F2
:10021000A6001120A1012108033C031C1829210874
:100220000420A200AA012208AB008220A10A0B2907
:100230008A110A12B329270B1E2921294030A80050
:100240002229A80101302602A80728088038A90021
:10025000AA012908AB00822008002508073A0319E3
:100260003B290B3A03194029063A03194829023A57
:1002700003194E2953290130A600A7001B21582934
:10028000AA010130AB0082200230A60011205829BB
:100290000130A6000230A7001B215829AA01103006
:1002A000AB00822058290130AA002508AB0082202B
:1002B00008000B08A1008B13831603178C170C146E
:1002C0000000000083120C087F390319A0290313D2
:1002D000A20003170D080313A30003170F0803134D
:1002E000A4002208A5002D21230803178D00031365
:1002F000240803178F0083168C170C1400000000CD
:1003000083120C0D0E0D7F390319A0290313A200CF
:1003100003170D080313A30003170F080313A4000A
:100320002208A5002D21230803178D00031324089C
:1003300003178F008D0A03198F0A03135C29031713
:100340000313A11B8B178A110A12BE2903081F3938
:10035000830083161F149F141F159F1107309C00E4
:1003600083138312DE280130A600A7001B210C3066
:1003700003178D0000308F0003135929B329630040
:02400E00313F40
:00000001FF
;PIC16F877A
;CRC=D831  CREATED="08-Nov-24 17:12"
