:1000000001308A00D62900000A108A100A118207DE
:1000100028340C34013406340C004537F4327210A5
:10002000D030F339F737723200000C00F030F3397A
:10003000F7377232A0316F39F232633A0001F03093
:10004000F339F7377232A034EE316F39F232633A56
:100050000000313084008313000803193D2801306B
:10006000F800F701F70B3228F80B31284A30F70077
:10007000F70B38283B28800B2F2808003818422817
:10008000081243280816831608128312B8184A2843
:1000900088124B2888168316881283123819522822
:1000A000081353280817831608138312B8195A28FF
:1000B00088135B288817831688130000831208159D
:1000C00083160811632883120811831608118312FE
:1000D0000800B9018316081600308312081A01308F
:1000E000B9048316881600308312881A0130F7008D
:1000F0000310F70D7708B904831608170030831230
:10010000081B0130F700F70DF70DFC30F7057708F5
:10011000B9048316881700308312881B0130F7005A
:10012000F70DF70DF70DF830F7057708B904390822
:10013000F8000800831608110810881083120810B0
:100140008316081008168816081788178312881453
:10015000831688100000831208158316081100000A
:10016000831269207808B80008118316081100006E
:10017000831208158316081100008312692078087D
:10018000B700081183160811081288120813881383
:100190008312380EF700F030F70577083704F800BF
:1001A0007808B700B71FD6288316A228B508031D04
:1001B000DB280810DC2808148316081000008312BE
:1001C0008810831688100000831208118316081106
:1001D0008312360EB7000F30B7053708B8003E203F
:1001E00036080F39B700B8003E2008008316081201
:1001F0008812081388130811081088108312081039
:100200008316081083128810831688108312081131
:10021000831608110F308312B10029200130AC0081
:100220002C08033C031C1C290330B8003E20053079
:10023000B1002920AC0A10290230B8003E20053058
:10024000B1002920AC012C08033C031C30292C08E8
:100250000420AD00B5012D08B6009A20AC0A232970
:100260008A110A12E329320B362939294030B300AA
:100270003A29B30101303102B30733088038B400A2
:10028000B5013408B6009A2008003008073A03196F
:1002900053290B3A03195829063A03196029023ADF
:1002A000031966296B290130B100B200332170298E
:1002B000B5010130B6009A200230B1002920702922
:1002C0000130B1000230B20033217029B501103085
:1002D000B6009A2070290130B5003008B6009A2087
:1002E00008000B08AC008B13831603178C170C1433
:1002F0000000000083120C087F390319B82903138A
:10030000AD0003170D080313AE0003170F08031306
:10031000AF002D08B00045212E0803178D000313F0
:100320002F0803178F0083168C170C140000000091
:1003300083120C0D0E0D7F390319B8290313AD007C
:1003400003170D080313AE0003170F080313AF00C4
:100350002D08B00045212E0803178D0003132F0828
:1003600003178F008D0A03198F0A031374290317CB
:100370000313AC1B8B1708000C3003178D000030E3
:100380008F00031371210130B100B20033210D3011
:1003900003178D0000308F00031371210130B1006D
:1003A0000230B20033218A110A12E42903081F39EE
:1003B000830083161F149F141F159F1107309C0084
:1003C00083138312F628BC2983168601FF3083121B
:1003D00086008316811301308312A1000330A2002E
:1003E000A300A400A500A6002208033C031C0D2CBA
:1003F00083168601EF30831286008316061483125B
:100400000618182A2108B1000230B2003321373013
:10041000B0004521A10A2208A203273E84008313CD
:1004200007308000831606148312061C122A622AE3
:100430008316861483128618332A2108B1000230ED
:10044000B20033213430B0004521A10A2208A203B2
:10045000273E8400831304308000831686148312A1
:10046000861C2D2A622A83160615831206194E2A27
:100470002108B1000230B20033213130B0004521F3
:10048000A10A2208A203273E8400831301308000C2
:10049000831606158312061D482A622A83168615BE
:1004A00083128619622A2108B1000230B20033217A
:1004B0002130B0004521A10AA203831686158312BC
:1004C000861D5D2A83168601FF30831286008316FF
:1004D0008601DF3083128600831606148312061805
:1004E000872A2108B1000230B20033213830B00031
:1004F0004521A10A2208A203273E84008313083065
:100500008000831606148312061C812AD62A8316BD
:10051000861483128618A22A2108B1000230B20084
:1005200033213530B0004521A10A2208A203273E1D
:100530008400831305308000831686148312861C82
:100540009C2AD62A8316061583120619BD2A21086D
:10055000B1000230B20033213230B0004521A10A8F
:100560002208A203273E84008313023080008316F2
:1005700006158312061DB72AD62A831686158312FE
:100580008619D62A2108B1000230B200332130305A
:10059000B0004521A10A2208A203273E840083134C
:1005A0008001831686158312861DD12A8316860143
:1005B000FF308312860083168601BF3083128600C7
:1005C0008316061483120618FB2A2108B100023094
:1005D000B20033213930B0004521A10A2208A2031C
:1005E000273E84008313093080008316061483128B
:1005F000061CF52A452B8316861483128618162BA3
:100600002108B1000230B20033213630B00045215C
:10061000A10A2208A203273E84008313063080002B
:10062000831686148312861C102B452B8316061501
:1006300083120619312B2108B1000230B200332198
:100640003330B0004521A10A2208A203273E8400CE
:10065000831303308000831606158312061D2B2B8F
:10066000452B8316861583128619452B2108B10068
:100670000230B20033213D30B0004521A10AA2036F
:10068000831686158312861D402B83168601FF3044
:1006900083128600831686017F30831286008316BC
:1006A000061483120618642B2108B1000230B20030
:1006B00033212A30B0004521A10AA2038316061473
:1006C0008312061C5E2BA22B8316861483128618B7
:1006D000792B2108B1000230B20033212B30B00059
:1006E0004521A10AA203831686148312861C732B4C
:1006F000A22B83160615831206198E2B2108B10032
:100700000230B20033212D30B0004521A10AA203EE
:10071000831606158312061D882BA22B83168615B9
:1007200083128619A22B2108B1000230B2003321B6
:100730002F30B0004521A10AA2038316861583122B
:10074000861D9D2B83168601FF30831286002208AA
:10075000FF3C031D0C2C23082A02031DE92B24084F
:100760002902031DE92B25082802031DE92B260871
:100770002702031DE92B153003178D0000308F0071
:1007800003137121AB012B08093C031CD52B8316E5
:1007900005100130831285060230AC009630B1009E
:1007A0002920AC0BCE2BAB0AC32B0130B100023099
:1007B000B2003321163003178D0000308F00031371
:1007C00071210230AC00FA30B1002920AC0BE32BD0
:1007D000072C83168501831285010230AC00FA30A4
:1007E000B1002920AC0BEF2B0130B1000230B20078
:1007F00033211F3003178D0000308F000313712148
:100800000430AC00FA30B1002920AC0B022C831666
:0C081000850183128501E229F4296300B0
:02400E00313F40
:00000001FF
;PIC16F877A
;CRC=667D  CREATED="09-Nov-24 13:03"
