:1000000001308A00A92900000A108A100A1182070B
:1000100028340C34013406343219C521D218321C6C
:1000200000003219C521D21833190000263084008F
:100030008313000803192A280130F800F701F70B91
:100040001F28F80B1E284A30F700F70B2528282810
:10005000800B1C2808002D182F280812302808169D
:10006000831608128312AD1837288812382888168C
:100070008316881283122D193F2808134028081769
:10008000831608138312AD19472888134828881748
:100090008316881300008312081583160811502850
:1000A000831208118316081183120800AE0183160B
:1000B000081600308312081A0130AE048316881621
:1000C00000308312881A0130F7000310F70D77080B
:1000D000AE048316081700308312081B0130F700A6
:1000E000F70DF70DFC30F7057708AE048316881777
:1000F00000308312881B0130F700F70DF70DF70D64
:10010000F830F7057708AE042E08F80008008316CB
:10011000081108108810831208108316081008169A
:100120008816081788178312881483168810000011
:1001300083120815831608110000831256207808D0
:10014000AD000811831608110000831208158316EC
:1001500008110000831256207808AC00081183169D
:100160000811081288120813881383122D0EF70045
:10017000F030F70577082C04F8007808AC00AC1FC5
:10018000C32883168F28AA08031DC8280810C92869
:100190000814831608100000831288108316881034
:1001A0000000831208118316081183122B0EAC0075
:1001B0000F30AC052C08AD002B202B080F39AC00FC
:1001C000AD002B200800831608128812081388132C
:1001D0000811081088108312081083160810831263
:1001E00088108316881083120811831608110F30A7
:1001F0008312A60016200130A1002108033C031C35
:1002000009290330AD002B200530A6001620A10AD5
:10021000FD280230AD002B200530A6001620A101DC
:100220002108033C031C1D2921080420A200AA0167
:100230002208AB008720A10A10298A110A12B629C8
:10024000270B232926294030A8002729A80101309F
:100250002602A80728088038A900AA012908AB00AF
:10026000872008002508073A031940290B3A03198B
:100270004529063A03194D29023A031953295829E9
:100280000130A600A70020215D29AA010130AB00A2
:1002900087200230A60016205D290130A60002301A
:1002A000A70020215D29AA011030AB0087205D291D
:1002B0000130AA002508AB00872008000B08A10028
:1002C0008B13831603178C170C1400000000831285
:1002D0000C087F390319A5290313A20003170D0881
:1002E0000313A30003170F080313A4002208A5009B
:1002F0003221230803178D000313240803178F00EE
:1003000083168C170C140000000083120C0D0E0DC8
:100310007F390319A5290313A20003170D0803133E
:10032000A30003170F080313A4002208A50032211D
:10033000230803178D000313240803178F008D0A69
:1003400003198F0A0313612903170313A11B8B17CA
:10035000080003081F39830083161F149F141F15FC
:100360009F1107309C0083138312E3280130A600FD
:10037000A70020210C3003178D0000308F000313DD
:100380005E210130A6000230A700202111300317A2
:0E0390008D0000308F0003135E21B62963003C
:02400E00313F40
:00000001FF
;PIC16F877A
;CRC=4380  CREATED="08-Nov-24 15:42"
